{
  "contractName": "Blog",
  "abi": [
    {
      "anonymous": false,
      "inputs": [
        {
          "indexed": false,
          "internalType": "uint256",
          "name": "id",
          "type": "uint256"
        },
        {
          "indexed": false,
          "internalType": "address",
          "name": "owner",
          "type": "address"
        },
        {
          "indexed": false,
          "internalType": "string",
          "name": "title",
          "type": "string"
        },
        {
          "indexed": false,
          "internalType": "string",
          "name": "description",
          "type": "string"
        },
        {
          "indexed": false,
          "internalType": "uint256",
          "name": "tipAmount",
          "type": "uint256"
        }
      ],
      "name": "PostCreated",
      "type": "event"
    },
    {
      "inputs": [
        {
          "internalType": "address",
          "name": "",
          "type": "address"
        }
      ],
      "name": "authorList",
      "outputs": [
        {
          "internalType": "address",
          "name": "id",
          "type": "address"
        },
        {
          "internalType": "string",
          "name": "nickName",
          "type": "string"
        },
        {
          "internalType": "uint256",
          "name": "totalTip",
          "type": "uint256"
        }
      ],
      "stateMutability": "view",
      "type": "function",
      "constant": true
    },
    {
      "inputs": [
        {
          "internalType": "uint256",
          "name": "",
          "type": "uint256"
        }
      ],
      "name": "postList",
      "outputs": [
        {
          "internalType": "uint256",
          "name": "id",
          "type": "uint256"
        },
        {
          "internalType": "address",
          "name": "owner",
          "type": "address"
        },
        {
          "internalType": "string",
          "name": "title",
          "type": "string"
        },
        {
          "internalType": "string",
          "name": "description",
          "type": "string"
        },
        {
          "internalType": "uint256",
          "name": "tipAmount",
          "type": "uint256"
        }
      ],
      "stateMutability": "view",
      "type": "function",
      "constant": true
    },
    {
      "inputs": [],
      "name": "totalPostCount",
      "outputs": [
        {
          "internalType": "uint256",
          "name": "",
          "type": "uint256"
        }
      ],
      "stateMutability": "view",
      "type": "function",
      "constant": true
    },
    {
      "inputs": [
        {
          "internalType": "address",
          "name": "_sender",
          "type": "address"
        }
      ],
      "name": "setAuthor",
      "outputs": [],
      "stateMutability": "nonpayable",
      "type": "function"
    },
    {
      "inputs": [
        {
          "internalType": "uint256",
          "name": "_postId",
          "type": "uint256"
        }
      ],
      "name": "getPost",
      "outputs": [
        {
          "internalType": "uint256",
          "name": "id",
          "type": "uint256"
        },
        {
          "internalType": "address",
          "name": "owner",
          "type": "address"
        },
        {
          "internalType": "string",
          "name": "title",
          "type": "string"
        },
        {
          "internalType": "string",
          "name": "description",
          "type": "string"
        },
        {
          "internalType": "uint256",
          "name": "tipAmount",
          "type": "uint256"
        }
      ],
      "stateMutability": "view",
      "type": "function",
      "constant": true
    },
    {
      "inputs": [
        {
          "internalType": "string",
          "name": "_title",
          "type": "string"
        },
        {
          "internalType": "string",
          "name": "_description",
          "type": "string"
        }
      ],
      "name": "writePost",
      "outputs": [],
      "stateMutability": "nonpayable",
      "type": "function"
    }
  ],
  "bytecode": "0x60806040526000805534801561001457600080fd5b50610f60806100246000396000f3fe608060405234801561001057600080fd5b50600436106100625760003560e01c80633a6209c31461006757806340731c24146101a55780638d3f486d146102e3578063a05f41a414610435578063ac62866914610479578063d98d49941461055a575b600080fd5b6100936004803603602081101561007d57600080fd5b8101908080359060200190929190505050610578565b604051808681526020018573ffffffffffffffffffffffffffffffffffffffff1681526020018060200180602001848152602001838103835286818151815260200191508051906020019080838360005b838110156100ff5780820151818401526020810190506100e4565b50505050905090810190601f16801561012c5780820380516001836020036101000a031916815260200191505b50838103825285818151815260200191508051906020019080838360005b8381101561016557808201518184015260208101905061014a565b50505050905090810190601f1680156101925780820380516001836020036101000a031916815260200191505b5097505050505050505060405180910390f35b6101d1600480360360208110156101bb57600080fd5b81019080803590602001909291905050506106fe565b604051808681526020018573ffffffffffffffffffffffffffffffffffffffff1681526020018060200180602001848152602001838103835286818151815260200191508051906020019080838360005b8381101561023d578082015181840152602081019050610222565b50505050905090810190601f16801561026a5780820380516001836020036101000a031916815260200191505b50838103825285818151815260200191508051906020019080838360005b838110156102a3578082015181840152602081019050610288565b50505050905090810190601f1680156102d05780820380516001836020036101000a031916815260200191505b5097505050505050505060405180910390f35b610433600480360360408110156102f957600080fd5b810190808035906020019064010000000081111561031657600080fd5b82018360208201111561032857600080fd5b8035906020019184600183028401116401000000008311171561034a57600080fd5b91908080601f016020809104026020016040519081016040528093929190818152602001838380828437600081840152601f19601f820116905080830192505050505050509192919290803590602001906401000000008111156103ad57600080fd5b8201836020820111156103bf57600080fd5b803590602001918460018302840111640100000000831117156103e157600080fd5b91908080601f016020809104026020016040519081016040528093929190818152602001838380828437600081840152601f19601f82011690508083019250505050505050919291929050505061098c565b005b6104776004803603602081101561044b57600080fd5b81019080803573ffffffffffffffffffffffffffffffffffffffff169060200190929190505050610be2565b005b6104bb6004803603602081101561048f57600080fd5b81019080803573ffffffffffffffffffffffffffffffffffffffff169060200190929190505050610d97565b604051808473ffffffffffffffffffffffffffffffffffffffff16815260200180602001838152602001828103825284818151815260200191508051906020019080838360005b8381101561051d578082015181840152602081019050610502565b50505050905090810190601f16801561054a5780820380516001836020036101000a031916815260200191505b5094505050505060405180910390f35b610562610e79565b6040518082815260200191505060405180910390f35b60016020528060005260406000206000915090508060000154908060010160009054906101000a900473ffffffffffffffffffffffffffffffffffffffff1690806002018054600181600116156101000203166002900480601f0160208091040260200160405190810160405280929190818152602001828054600181600116156101000203166002900480156106505780601f1061062557610100808354040283529160200191610650565b820191906000526020600020905b81548152906001019060200180831161063357829003601f168201915b505050505090806003018054600181600116156101000203166002900480601f0160208091040260200160405190810160405280929190818152602001828054600181600116156101000203166002900480156106ee5780601f106106c3576101008083540402835291602001916106ee565b820191906000526020600020905b8154815290600101906020018083116106d157829003601f168201915b5050505050908060040154905085565b6000806060806000808611801561071757506000548611155b80156107865750600073ffffffffffffffffffffffffffffffffffffffff166001600088815260200190815260200160002060010160009054906101000a900473ffffffffffffffffffffffffffffffffffffffff1673ffffffffffffffffffffffffffffffffffffffff1614155b61078f57600080fd5b6000600160008881526020019081526020016000206040518060a0016040529081600082015481526020016001820160009054906101000a900473ffffffffffffffffffffffffffffffffffffffff1673ffffffffffffffffffffffffffffffffffffffff1673ffffffffffffffffffffffffffffffffffffffff168152602001600282018054600181600116156101000203166002900480601f0160208091040260200160405190810160405280929190818152602001828054600181600116156101000203166002900480156108a85780601f1061087d576101008083540402835291602001916108a8565b820191906000526020600020905b81548152906001019060200180831161088b57829003601f168201915b50505050508152602001600382018054600181600116156101000203166002900480601f01602080910402602001604051908101604052809291908181526020018280546001816001161561010002031660029004801561094a5780601f1061091f5761010080835404028352916020019161094a565b820191906000526020600020905b81548152906001019060200180831161092d57829003601f168201915b50505050508152602001600482015481525050905080600001518160200151826040015183606001518460800151955095509550955095505091939590929450565b6000825111801561099e575060008151115b6109a757600080fd5b60008081548092919060010191905055506040518060a0016040528060005481526020013373ffffffffffffffffffffffffffffffffffffffff168152602001838152602001828152602001600081525060016000805481526020019081526020016000206000820151816000015560208201518160010160006101000a81548173ffffffffffffffffffffffffffffffffffffffff021916908373ffffffffffffffffffffffffffffffffffffffff1602179055506040820151816002019080519060200190610a79929190610e7f565b506060820151816003019080519060200190610a96929190610e7f565b50608082015181600401559050507f1947cbf766c888fc9c5f4256cf388fe32d4901ff5bd47d3a4d5318af978cddbe6000543384846000604051808681526020018573ffffffffffffffffffffffffffffffffffffffff1681526020018060200180602001848152602001838103835286818151815260200191508051906020019080838360005b83811015610b39578082015181840152602081019050610b1e565b50505050905090810190601f168015610b665780820380516001836020036101000a031916815260200191505b50838103825285818151815260200191508051906020019080838360005b83811015610b9f578082015181840152602081019050610b84565b50505050905090810190601f168015610bcc5780820380516001836020036101000a031916815260200191505b5097505050505050505060405180910390a15050565b8073ffffffffffffffffffffffffffffffffffffffff16600260008373ffffffffffffffffffffffffffffffffffffffff1673ffffffffffffffffffffffffffffffffffffffff16815260200190815260200160002060000160009054906101000a900473ffffffffffffffffffffffffffffffffffffffff1673ffffffffffffffffffffffffffffffffffffffff161415610c7d57600080fd5b60405180606001604052808273ffffffffffffffffffffffffffffffffffffffff1681526020016040518060400160405280600481526020017f746573740000000000000000000000000000000000000000000000000000000081525081526020016000815250600260008373ffffffffffffffffffffffffffffffffffffffff1673ffffffffffffffffffffffffffffffffffffffff16815260200190815260200160002060008201518160000160006101000a81548173ffffffffffffffffffffffffffffffffffffffff021916908373ffffffffffffffffffffffffffffffffffffffff1602179055506020820151816001019080519060200190610d86929190610e7f565b506040820151816002015590505050565b60026020528060005260406000206000915090508060000160009054906101000a900473ffffffffffffffffffffffffffffffffffffffff1690806001018054600181600116156101000203166002900480601f016020809104026020016040519081016040528092919081815260200182805460018160011615610100020316600290048015610e695780601f10610e3e57610100808354040283529160200191610e69565b820191906000526020600020905b815481529060010190602001808311610e4c57829003601f168201915b5050505050908060020154905083565b60005481565b828054600181600116156101000203166002900490600052602060002090601f016020900481019282610eb55760008555610efc565b82601f10610ece57805160ff1916838001178555610efc565b82800160010185558215610efc579182015b82811115610efb578251825591602001919060010190610ee0565b5b509050610f099190610f0d565b5090565b5b80821115610f26576000816000905550600101610f0e565b509056fea2646970667358221220108b7c2fbcfad2865745b50fe7f8587225450f350d0b0175c72466f26486446764736f6c63430007060033",
  "immutableReferences": {},
  "source": "// SPDX-License-Identifier: MIT\npragma solidity ^0.7.5;\n\ncontract Blog {\n  uint public totalPostCount = 0;\n\n  struct Post {\n    uint id;\n    address owner;\n    string title;\n    string description;\n    uint tipAmount;\n  }\n\n  event PostCreated(\n    uint id,\n    address owner,\n    string title,\n    string description,\n    uint tipAmount\n  );\n\n  struct Author {\n    address id;\n    string nickName;\n    uint totalTip;\n  }\n\n\n  mapping (uint => Post) public postList;\n  mapping (address => Author ) public authorList; // TODO : 지갑을 연결할 때 Author를 채워야 할듯. \n\n  // constructor () public {\n  // }\n  // Author 구조체를 만들고 내 주소를 매핑하는 함수\n  function setAuthor(address _sender) public{\n    require(authorList[_sender].id != _sender);\n    authorList[_sender] = Author(_sender, \"test\", 0);\n  }\n\n  //게시글 읽기 함수\n  function getPost (uint _postId) public view returns(\n      uint id,\n      address owner,\n      string memory title,\n      string memory description,\n      uint tipAmount\n    ){\n    require(\n      _postId > 0 && \n      _postId <= totalPostCount &&\n      postList[_postId].owner != address(0x0)\n    );\n    Post memory post = postList[_postId];\n    return (post.id, post.owner, post.title, post.description, post.tipAmount);\n  }\n  //게시글 쓰기 함수\n  function writePost (string memory _title, string memory _description) public {\n    require(bytes(_title).length >0 && bytes(_description).length > 0 );\n    totalPostCount ++;\n    postList[totalPostCount] = Post(totalPostCount, msg.sender, _title, _description, 0);\n    emit PostCreated(totalPostCount, msg.sender, _title, _description, 0);\n  }\n}\n",
  "sourcePath": "/Users/seung/Desktop/crypto/dapp-blog/dapp-blog/chain/contracts/Blog.sol",
  "compiler": {
    "name": "solc",
    "version": "0.7.6+commit.7338295f.Emscripten.clang"
  },
  "schemaVersion": "3.4.4",
  "updatedAt": "2022-02-03T13:29:55.281Z",
  "networkType": "ethereum",
  "devdoc": {
    "kind": "dev",
    "methods": {},
    "version": 1
  },
  "userdoc": {
    "kind": "user",
    "methods": {},
    "version": 1
  }
}